:04000000020029329F
:01000B0032C2
:0100130032BA
:01001B0032B2
:03002300020C9537
:20008200780174C0F2780274A8F278037410F27804C4F2780574FFF27806F27807F27808D1
:2000A200E4F2780974C0F2780A74A8F2780B7410F2780C7445F2780D74DEF2780E74ADF2A7
:2000C200780F74BEF2781074EFF27811C4F2781274EDF2781374C0F2781474A8F27815742E
:0C00E20010F278167497F278177433F25D
:0300F500020026E0
:03002600020ACFFC
:2000F800AD82AE83AFF07C008D828E838FF01214C7FBA3AD82AE83EB60030C80EB8C8222EE
:20011800AD82AE83AFF0781BE2F50E08E2F50F08E2F5108D828E838FF01214C7F50C602B5B
:20013800850E82850F838510F01214C7F50D601BAC0C0DBD00010EAB0D050EE4B50E020582
:200158000FECB5030280CC7582002275820122E582FF24C640088F06EE24D0FE8013EF24A0
:20017800B940088F0574C92DFD800474A92FFD8D068E8222AFF0AE83E582781EF208EEF232
:2001980008EFF2781EE2F58208E2F58308E2F5F01214C7FCBC4D02800122781EE22401FA10
:2001B80008E23400FB08E2FC8A828B838CF01214C7FABA4102800122781EE22402FA08E289
:2001D8003400FB08E2FC8A828B838CF01214C7FABA4302800122781EE22403FA08E234001C
:2001F800FB08E2FC8A828B838CF01214C7FABA3D028001227D00BD0600400122ED240DF933
:200218008D027B00EA2AFAEB33FB74042AFCE43BFF781EE22CFC08E23FFF08E2FE8C828F8C
:20023800838EF01214C7F582C005C003C002C001120167AF82D001D002D003D005EFC45439
:20025800F0FF74052AFAE43BFB781EE22AFA08E23BFB08E2FE8A828B838EF01214C7F58240
:20027800C007C005C001120167AE82D001D005D007EE2FF30D02020EAD82AE83AFF0782428
:20029800E4F208F208F27827F28D828E838FF01214C7FB700122BB494274012DFAE43EFBD2
:2002B8008F048A828B838CF01214C7FABA502C74022DFAE43EFB8F048A828B838CF01214D7
:2002D800C7FABA3D1678247409F208E4F2087460F274032DFDE43EFE0203D58D828E838F37
:2002F800F01214C7FBBB535874012DFAE43EFB8F048A828B838CF01214C7FABA5542740218
:200318002DFAE43EFB8F048A828B838CF01214C7FABA422C74032DFAE43EFB8F048A828B64
:20033800838CF01214C7FABA3D1678247405F208E4F2087460F274042DFDE43EFE0203D563
:200358008D828E838FF01214C7FBBB470280030203D574012DFAE43EFB8F048A828B838CAB
:20037800F01214C7FABA415574022DFAE43EFB8F048A828B838CF01214C7FABA543F7403B0
:200398002DFAE43EFB8F048A828B838CF01214C7FABA452974042DFAE43EFB8F048A828BE3
:2003B800838CF01214C7FABA3D1378247401F208E4F2087460F274052DFDE43EFE7828E43F
:2003D800F28D0C8E0D8F0E850C82850D83850EF01214C7FABA3000401EEA24C6401978289B
:2003F800E275F00AA4FCEA24D078282CF2050CE4B50CD4050D80D07821E50CF208E50DF204
:2004180008E50EF27824E2F5F008E245F0604F7827E2B40400504778247927E3C5F0E225FB
:20043800F0FA08E23400FB08E2FC8A828B838CF07828E21212F67827E22401F2850C828559
:200458000D83850EF01214C7FCBC2E0E7401250CFDE4350DFEAF0E0202A17827E4F2782159
:20047800E22401FD08E23400FE08E2FF0202A1AD82AE83AFF07C00BC04005044EC2DF9E4F1
:200498003EFA8F0389828A838BF01214C7F582C007C006C005C004120BCFD004D005D00602
:2004B800D007BC0302801675822EC007C006C005C004120C84D004D005D006D0070C80B780
:2004D80022AD82AE83AFF07C00BC06005047EC2DF9E43EFA8F0389828A838BF01214C7F5D9
:2004F80082C007C006C005C004120B84D004D005D006D007BC050280199014E775F080C0C9
:2005180007C006C005C004120B59D004D005D006D0070C80B4229014E975F080120B5990C7
:20053800151C75F080120B597817E2F582120C8490152D75F080120B5990154775F080127D
:200558000B5990000975F06012048790155175F080120B5990157375F080120B59900005CB
:2005780075F06012048790158175F080120B599015A075F080120B5990000175F060120474
:20059800879015AA75F080120B599015CF75F080120B5990000D75F0601204D99015DA75FE
:2005B800F080020B59758201120DD878D0748AF2087413F2758201120F70758201120CE224
:2005D800758201020F47120B4078E37401F208E4F2087460F278E2E4F278E67404F208E404
:2005F800F290000112127E78E37405F208E4F2087460F278E2E4F278E67404F208E4F290E6
:20061800000512127E78E37409F208E4F2087460F278E2E4F278E67404F208E4F290000F30
:2006380012127E78E3740DF208E4F2087460F278E2E4F278E67406F208E4F29000091212F1
:200658007E1205BD78D47413F208E4F2087460F2758200120FD278D07489F20823F275828A
:2006780000120F7078D274BCF2087490F2758200120FA1758200120D7F758200120CE2D250
:2006980090D291227829E4F27E00783EF27867F2C006120C55AA82AB83ACF07818EAF2081C
:2006B800EBF208ECF28A828B838CF01200F8AC82D0067868ECF2EC70030208AD781B74FAE6
:2006D800F2087415F2087480F27818E2F58208E2F58308E2F5F0C006120118E582D00660F7
:2006F8000AC00612052ED0060208AD781B74FCF2087415F2087480F27818E2F58208E2F512
:200718008308E2F5F0C006120118E582D00670030208607853E2FBBB49357855E2FBBB3DE1
:200738002E90005375F060C00612029078E37409F208E4F2087460F278E2E4F278E67404E5
:20075800F208E4F290000F12127ED00602083D7853E2FBBB52107856E2FBBB3D097857799A
:2007780017E2F302083D7853E2FBBB47357857E2FBBB3D2E90005375F060C00612029078F3
:20079800E37401F208E4F2087460F278E2E4F278E67404F208E4F290000112127ED006026A
:2007B800083D7853E2FBBB53347856E2FBBB3D2D90005375F060C00612029078E37405F24A
:2007D80008E4F2087460F278E2E4F278E67404F208E4F290000512127ED00680487853E2FD
:2007F800FBBB4D347856E2FBBB3D2D90005375F060C00612018C78E3740DF208E4F20874A5
:2008180060F278E2E4F278E67406F208E4F290000912127ED006800D9015FE75F080C006AA
:20083800120B59D0067B00BB14005009EB2453F8E4F20B80F290161075F080C006120B592D
:20085800D0067867E4F280397867E2FB7A007868C3E2F5F0EA95F05024C006EB2453F97820
:2008780018E22AFD08E23400FE08E2FF8D828E838FF01214C7FDF30B0AD00680D17867EBB8
:20089800F27818E2F58208E2F58308E2F5F0C006120B59D0067F00783EE2FD758200C00750
:2008B800C006C005121096E5828583F0D005D006D00745F0606AC290D2910FBF090050140D
:2008D800758200C007C006C0051210CDD005D006D00780C7758200C007C006C0051210CDC7
:2008F800AB82D005D006D0078B02BA61004022EA2485401D8B027C008A828C83C007C00686
:20091800C0051214A4AA82AC83D005D006D0078A03ED242AF8EBF20D78297401F20208B3E4
:20093800783EEDF27829E270030209C4D290C291782AE2FFBF3A4C782BE2FFBF3C458D0770
:20095800EF14242AF9E3FCBC3E39782B745BF2EF14242AF8745DF2782CE2FF7817E2B50701
:200978004478D7742AF208E4F2087460F278DAEDF2758200C006120FF8758200121197D008
:2009980006802278D7742AF208E4F2087460F2783E79DAE2F3758200C006120FF875820061
:2009B800121197D006783EE4F27829F2758201C006120F1DAF82D0067D00BF170280030293
:2009D8000AB7758201C007C006C005121096E5828583F0D005D006D00745F06048C290D25A
:2009F80091758201C007C0051210CDAC82D005D0078C03BB6100401EEB248540198C027B02
:200A1800008A828B83C007C0051214A4AA82AB83D005D0078A04ED243FF8ECF27E018D0484
:200A3800EC04FD809DEE6077D290C291783FE2FCBC3A6C7840E2FCBC3C658D04EC14243F3C
:200A5800F9E3FBBB3E597840745BF2EC14243FF8745DF27841E2FC7817E2B5041C78D7741E
:200A78003FF208E4F2087460F278DAEDF2758201C007120FF8D007801A78D7743FF208E427
:200A9800F2087460F278DAEDF2758201C007120FF8D007758201C007121197D0077E00BF11
:1F0AB8001C0280030206A8758201C006120D2D1205BDD0060206A81205DE12069C80FB46
:2014E70020000A0D43555252454E5420434F4E4649473A20202020202020202020202020DB
:20150700202020202020204348414E474520434D443A0A0D005254552041646472202830EB
:201527002D39293A20002020202020202020202020202020202020205254553D230A0D0009
:20154700495020416464723A20002020202020202020202020202049503D2323232E2323A3
:20156700232E2323232E2323230A0D005375626E6574204D61736B3A2000202020202020C5
:201587002020205355423D2323232E2323232E2323232E2323230A0D0047617465776179A6
:2015A7003A20002020202020202020202020202020474154453D2323232E2323232E232338
:2015C700232E2323230A0D004D414320416464723A200020202020202020204D41433D4619
:2015E700462046462046462046462046462046460A0D003F000D000A0D496E76616C696401
:0B16070020436F6D6D616E64000A00EF
:200AD700D296C292C295D294C29322D293D292D295D29422E58224FF9295D292A294E433F5
:200AF700F582C29222AF827E007D008E04EC2CFC7407C39DFB8BF005F0EF8002C313D5F0CE
:200B1700FB5401F582C007C005C004120AEBAB82D004D005D007EB4CFE0DBD080040CC8E52
:090B37008222C2960000D296222F
:0700EE0078ABE4F278ACF2FC
:200B40007589207598D8758DFAE5884440F588E5984402F59875A89022AD82AE83AFF08D7D
:200B6000828E838FF01214C7FC60188C820DBD00010EC007C006C005120C84D005D006D0AC
:200B80000780DC22E582FFC4540FFE24F650088E0574372DFD800474302EFD8D82C0071230
:200BA0000C84D0078F0553050F7E00C374099D74808EF063F08095F0500A8F06740F5E24BA
:200BC00037FE8006740F5F2430FE8E82020C84AE827F0078ED7464F208E4F28E828F83C0E6
:200BE00007C0061213F1AC82AD83D006D007EC4D601074302CF582C007C006120C84D00612
:200C0000D00778E97464F208E4F28E828F83C007C00612131178ED740AF208E4F21213F146
:200C2000AC82AD83D006D007EC4D601074302CF582C007C006120C84D006D00778E9740AFE
:200C4000F208E4F28E828F83121311AE8274302EF582020C847F00EF248AF9E3600EEF24E8
:200C600069F9EF248AF8E2FEF30F80EBEF2469F9EF248AF8E2F378ABE4F2788AF29000696B
:200C800075F06022AF8278ACEFF278ACE2F59978ACE270FB22C0E0C0F0C000C0D075D0002B
:200CA00030982DC2AFC29878ABE2248AF8E599F278ABE22401F278ABE2248AF8E4F278AB99
:200CC000C3E2F5F0742095F0500478ABE4F2D2AF30990678ACE4F2C299D0D0D000D0F0D07F
:020CE000E03200
:200CE200AF8278AD7401F2EF2F25E078E204F278E374ADF208E4F2087460F278E67401F2E3
:200D020008E4F290000102127E78AD7480F278E374ADF208E4F2087460F278E2E4F278E61D
:200D220004F208E4F290000002127EAF8278AD7410F2EF2F25E078E204F278E374ADF20806
:200D4200E4F2087460F278E67401F208E4F290000102127EAF8278AD7408F2EF2F25E078C8
:200D6200E204F278E374ADF208E4F2087460F278E67401F208E4F290000102127EE582252D
:200D82008225E0FF0F78DD74ADF208E4F2087460F278DCEFF278E07401F208E4F290000046
:200DA200C007121206D00778ADE2FE5306F078ADEEF274024E78ADF278E374ADF208E4F2EF
:200DC200087460F278E2EFF278E67401F208E4F290000002127EE582258225E0FF0F78DDCD
:200DE20074ADF208E4F2087460F278DCEFF278E07401F208E4F2900000C007121206D00708
:200E020078ADE2FE5306F078ADEEF274014E78ADF278E374ADF208E4F2087460F278E2EF40
:200E2200F278E67401F208E4F290000002127EE582258225E078DC04F278DD74ADF208E448
:200E4200F2087460F278E07401F208E4F290002C12120678ADE2F5822278DD74ADF208E459
:200E6200F2087460F278DCE4F278E004F208E4F290001712120678ADE2F58222AF8278AD93
:200E82007404F2EF2F25E078E204F278E374ADF208E4F2087460F278E67401F208E4F29026
:200EA200002C02127E78DD74ADF208E4F2087460F278DCE4F278E004F208E4F2900018124E
:200EC200120678ADE2F58222AF8278AD74FFF2EF2F25E078E204F278E374ADF208E4F208D6
:200EE2007460F278E67401F208E4F290000202127EE582258225E078DC04F278DD74ADF29E
:200F020008E4F2087460F278E07401F208E4F290000212120678ADE2F58222E582258225F7
:200F2200E078DC04F278DD74ADF208E4F2087460F278E07401F208E4F2900003121206789F
:200F4200ADE2F58222AF8278AD7402F2EF2F25E078E204F278E374ADF208E4F2087460F21C
:200F620078E67401F208E4F290000102127EAF8278D1E278ADF278D0E2FE78AEF2EF2F25B3
:200F8200E078E204F278E374ADF208E4F2087460F278E67402F208E4F290000402127EAF8C
:200FA2008278D3E278ADF278D2E2FE78AEF2EF2F25E078E204F278E374ADF208E4F20874EC
:200FC20060F278E67402F208E4F290001002127EE582258225E078E204F278D479E3E2F307
:200FE20008E209F308E209F378E67404F208E4F290000C02127EE582258225E0FF04FE78C3
:20100200DD74ADF208E4F2087460F278DCEEF278E07402F208E4F2900024C007C0061212FB
:2010220006D006D00778ADE2FC7D0078AEE27A004205EA420478E274022FF278DA79E6E2FE
:20104200F309E4F378D779E3E2F308E209F308E209F38D828C83C006C005C00412127ED090
:2010620004D005D00678DAE27F002DFBEF3CFD78ADF278AEEBF278E374ADF208E4F20874DA
:2010820060F278E2EEF278E67402F208E4F290002402127EE582258225E078DC04F278DD26
:2010A20074ADF208E4F2087460F278E07402F208E4F290002612120678ADE2FE7F0078AE47
:2010C200E27C004FF582EC4EF58322AF8278DBE4F2EF2F25E0FF04FE78DD74ADF208E4F252
:2010E200087460F278DCEEF278E07402F208E4F2900028C007C006121206D006D00778AD0D
:20110200E2FC7D0078AEE27A004205EA420478DC74032FF278DD74DBF208E4F2087460F24B
:2011220078E07401F208E4F28D828C83C006C005C004121206D004D005D0060DBD00010C23
:201142008C0778ADEFF278AEEDF278E374ADF208E4F2087460F278E2EEF278E67402F208CD
:20116200E4F2900028C00612127ED00678AD7440F278E374ADF208E4F2087460F278E2EE74
:20118200F278E67401F208E4F290000112127E78DBE2F58222AF8278AD7420F2EF2F25E0B8
:2011A20078E204F278E374ADF208E4F2087460F278E67401F208E4F290000102127E78DDA8
:2011C20074ADF208E4F2087460F278DCE4F278E004F208E4F290003912120678ADE2F58287
:2011E2002278DD74ADF208E4F2087460F278DCE4F278E004F208E4F290002E12120678AD54
:20120200E2F58222AE82AF838F0578DCE2C40354F8FFC007C006C005120AD7D0058D8212D8
:201222000AFCD0068E82120AFCD0078F82120AFC78DDE2FD08E2FE08E2FF78E0E2F5080864
:20124200E2F509AA08AC09150874FFB508021509EA4C6025758200C007C006C005120AFCBC
:20126200AC82D005D006D0078D828E838FF0EC1212F6A3AD82AE8380CA020AE2AE82AF837A
:201282008F0578E2E2C40354F8FF430704C007C006C005120AD7D0058D82120AFCD0068E77
:2012A20082120AFCD0078F82120AFC78E3E2FD08E2FE08E2FF78E6E2F50A08E2F50BAA0AAA
:2012C200AC0B150A74FFB50A02150BEA4C60228D828E838FF01214C7FCA3AD82AE838C8291
:1412E200C007C006C005120AFCD005D006D00780CD020AE2D1
:06005800E478FFF6D8FD7C
:200036007900E94400601B7A00901612780175A000E493F2A308B8000205A0D9F4DAF27548
:02005600A0FF09
:1B12F60020F71130F6138883A88220F509F6A8837583002280FEF280F5F022F7
:20131100AE82E583FF33E433FD6009C3E49EFBE49FFC80048E038F0478EAE230E71078E942
:20133100E2D3F43400FE08E2F43400FF800778E9E2FE08E2FF78EBEEF208EFF28B828C83B7
:1D135100C00512136EAE82AF83D005ED600AC3E49EF582E49FF583228E828F83227C
:20136E00AE82AF837D007C0078ECE2235401FB703578EBE225E0F208E233F278EBC3E2F55E
:20138E00F0EE95F008E2F5F0EF95F0501478EBE2F5F008E2C313C5F01318F2C5F008F2804A
:2013AE00050C8C0580C278EBC3E2F5F0EE95F008E2F5F0EF95F0400E78EBD3E29EF4B3FEEF
:2013CE00B308E29FF4FF78EBE2F5F008E2C313C5F01318F2C5F008F28D041DEC70C88E8283
:0313EE008F8322C8
:2013F100AE82E583FF33E433FD6009C3E49EFBE49FFC80048E038F0478EEE233E433FF603D
:201411001078EDE2D3F43400FA08E2F43400FE800778EDE2FA08E2FE78EFEAF208EEF28BF9
:20143100828C83C007C005121456AC82AE83D005D007EF6D600AC3E49CF582E49EF583225B
:051451008C828E832255
:20005E0078F0E84400600A790175A000E4F309D8FC7800E84400600C7900900001E4F0A3B0
:04007E00D8FCD9FAD7
:20145600AE82AF837C007D007B10EF235401FAEE2EFEEF33FFEC2CFCED33FDEA600343042F
:201476000178EFC3E2F5F0EC95F008E2F5F0ED95F0401178EFD3E29CF4B3FCB308E29DF4D8
:0E149600FD430601EB14FB70C18E828F832292
:2014A400AE82AF838E05BD6100400FED2485400A74E02EFC74FF3FFD80048E048F058C8201
:0314C4008D8322F3
:0D0029007581101214E3E5826003020026C9
:1C14C70020F71430F6148883A88220F507E6A88375830022E280F7E49322E02234
:0414E30075820022EC
:00000001FF
