:04000000020029329F
:01000B0032C2
:0100130032BA
:01001B0032B2
:03002300020D6764
:20008200780174C0F2780274A8F278037410F27804C4F2780574FFF27806F27807F27808D1
:2000A200E4F2780974C0F2780A74A8F2780B7410F2780C7445F2780D74DEF2780E74ADF2A7
:2000C200780F74BEF2781074EFF27811C4F2781274EDF2781374C0F2781474A8F27815742E
:0C00E20010F278167497F278177433F25D
:0300F500020026E0
:03002600020BBA10
:2000F800AD82AE83AFF07C008D828E838FF0121599FBA3AD82AE83EB60030C80EB8C82221B
:20011800AD82AE83AFF0781BE2F50E08E2F50F08E2F5108D828E838FF0121599F50C602B88
:20013800850E82850F838510F0121599F50D601BAC0C0DBD00010EAB0D050EE4B50E0205AF
:200158000FECB5030280CC7582002275820122E582FF24C640088F06EE24D0FE8013EF24A0
:20017800B940088F0574C92DFD800474A92FFD8D068E8222AFF0AE83E582781EF208EEF232
:2001980008EFF2781EE2F58208E2F58308E2F5F0121599FCBC4D02800122781EE22401FA3D
:2001B80008E23400FB08E2FC8A828B838CF0121599FABA4102800122781EE22402FA08E2B6
:2001D8003400FB08E2FC8A828B838CF0121599FABA4302800122781EE22403FA08E2340049
:2001F800FB08E2FC8A828B838CF0121599FABA3D028001227D00BD0600400122ED240DF960
:200218008D027B00EA2AFAEB33FB74042AFCE43BFF781EE22CFC08E23FFF08E2FE8C828F8C
:20023800838EF0121599F582C005C003C002C001120167AF82D001D002D003D005EFC45466
:20025800F0FF74052AFAE43BFB781EE22AFA08E23BFB08E2FE8A828B838EF0121599F5826D
:20027800C007C005C001120167AE82D001D005D007EE2FF30D02020EAD82AE83AFF0782428
:20029800E4F208F208F27827F28D828E838FF0121599FB700122BB494274012DFAE43EFBFF
:2002B8008F048A828B838CF0121599FABA502C74022DFAE43EFB8F048A828B838CF0121503
:2002D80099FABA3D1678247409F208E4F2087460F274032DFDE43EFE0203D58D828E838F65
:2002F800F0121599FBBB535874012DFAE43EFB8F048A828B838CF0121599FABA5542740272
:200318002DFAE43EFB8F048A828B838CF0121599FABA422C74032DFAE43EFB8F048A828B91
:20033800838CF0121599FABA3D1678247405F208E4F2087460F274042DFDE43EFE0203D590
:200358008D828E838FF0121599FBBB470280030203D574012DFAE43EFB8F048A828B838CD8
:20037800F0121599FABA415574022DFAE43EFB8F048A828B838CF0121599FABA543F74030A
:200398002DFAE43EFB8F048A828B838CF0121599FABA452974042DFAE43EFB8F048A828B10
:2003B800838CF0121599FABA3D1378247401F208E4F2087460F274052DFDE43EFE7828E46C
:2003D800F28D0C8E0D8F0E850C82850D83850EF0121599FABA3000401EEA24C640197828C8
:2003F800E275F00AA4FCEA24D078282CF2050CE4B50CD4050D80D07821E50CF208E50DF204
:2004180008E50EF27824E2F5F008E245F0604F7827E2B40400504778247927E3C5F0E225FB
:20043800F0FA08E23400FB08E2FC8A828B838CF07828E21213C87827E22401F2850C828586
:200458000D83850EF0121599FCBC2E0E7401250CFDE4350DFEAF0E0202A17827E4F2782186
:20047800E22401FD08E23400FE08E2FF0202A1AD82AE83AFF07C00BC04005044EC2DF9E4F1
:200498003EFA8F0389828A838BF0121599F582C007C006C005C004120CA1D004D005D0065C
:2004B800D007BC0302801675822EC007C006C005C004120D56D004D005D006D0070C80B7AD
:2004D80022AD82AE83AFF07C00BC06005047EC2DF9E43EFA8F0389828A838BF0121599F506
:2004F80082C007C006C005C004120C56D004D005D006D007BC050280199015B975F080C023
:2005180007C006C005C004120C2BD004D005D006D0070C80B4229015BB75F080120C2B904E
:2005380015EE75F080120C2B7817E2F582120D569015FF75F080120C2B90161975F080128D
:200558000C2B90000975F06012048790162375F080120C2B90164575F080120C2B900005AC
:2005780075F06012048790165375F080120C2B90167275F080120C2B90000175F060120428
:200598008790167C75F080120C2B9016A175F080120C2B90000D75F0601204D99016AC75DF
:2005B800F080020C2B758201120EAA78DE748AF2087413F2758201121042758201120DB4CA
:2005D800758201121019758201020F50120C12120C0C78F17401F208E4F2087460F278F039
:2005F800E4F278F47404F208E4F290000112135078F17405F208E4F2087460F278F0E4F295
:2006180078F47404F208E4F290000512135078F17409F208E4F2087460F278F0E4F278F4D6
:200638007404F208E4F290000F12135078F1740DF208E4F2087460F278F0E4F278F474069A
:20065800F208E4F290000912135078F174CCF2087416F2087480F278F0E4F278F404F208EF
:20067800E4F29000181213509016CE75F080120C2B120F79120C569016DB75F080120C2B10
:20069800120F2D120C569016E775F080120C2B758200120F03120C569016FB75F080120C92
:2006B8002B758201120F03120C561205BD78E27413F208E4F2087460F27582001210A478DF
:2006D800DE7489F20823F275820012104278E074BCF2087490F275820012107375820012B0
:2006F8000E51758200120DB4758200120F50D290D291227829E4F2782AF27D007867F2C051
:2007180005120D27AA82AB83ACF07818EAF208EBF208ECF28A828B838CF01200F8AC82D0AB
:20073800057868ECF2EC700302091B781B740EF2087417F2087480F27818E2F58208E2F517
:200758008308E2F5F0C005120118E582D005600AC00512052ED00502091B781B7410F20883
:200778007417F2087480F27818E2F58208E2F58308E2F5F0C005120118E582D0057003023B
:2007980008CF7853E2FBBB49357855E2FBBB3D2E90005375F060C00512029078F17409F2D0
:2007B80008E4F2087460F278F0E4F278F47404F208E4F290000F121350D0050208AC785319
:2007D800E2FBBB52107856E2FBBB3D0978577917E2F30208AC7853E2FBBB47357857E2FBE6
:2007F800BB3D2E90005375F060C00512029078F17401F208E4F2087460F278F0E4F278F484
:200818007404F208E4F2900001121350D0050208AC7853E2FBBB53347856E2FBBB3D2D909D
:20083800005375F060C00512029078F17405F208E4F2087460F278F0E4F278F47404F20883
:20085800E4F2900005121350D00580487853E2FBBB4D347856E2FBBB3D2D90005375F060A7
:20087800C00512018C78F1740DF208E4F2087460F278F0E4F278F47406F208E4F2900009E7
:20089800121350D005800D90171275F080C005120C2BD0057B00BB14005009EB2453F8E407
:2008B800F20B80F290172475F080C005120C2BD0057867E4F280387867E2FB7A007868C3D8
:2008D800E2F5F0EA95F05023C005EB2453F97818E22AFD08E23400FE08E2FF8D828E838FEA
:2008F800F0121599F30B0AD00580D27867EBF27818E2F58208E2F58308E2F5F0C005120C48
:200918002BD0057F008D06758200C007C006121168E5828583F0D006D00745F0605DC2904E
:20093800D2910FBF09005010758200C007C00612119FD006D00780CF758200C007C006122D
:20095800119FAB82D006D0078B02BA6100401EEA248540198B027C008A828C83C007C00652
:20097800121576AA82AC83D006D0078A03EE242BF8EBF20E78297401F2808C8E057829E2E3
:200998007003020A80D290C291782BE2FFBF3A4D782CE2FFBF3C468E07EF14242BF9E3FC3C
:2009B800BC3E3A782C745BF2EF14242BF8745DF2782DE2FF7817E2B507028003020A587865
:2009D800E5742BF208E4F2087460F278E8EEF27582001210CA7582001212698063786974FE
:2009F80049F2786A746EF2786B7476F2786C7461F2786D746CF2786E7469F2786F7464F267
:200A180078707420F278717446F27872746FF278737472F27874746DF278757461F27876D8
:200A38007474F278E57469F208E4F2087460F278E8740DF27582001210CA758200121269B2
:200A58007F00BF1400500BB2A4EF242BF8E4F20F80F07D007829E4F2758201C005120F9C82
:200A7800758200120F9CD005758201C005120FEFAF82D0057E00BF17028003020B9675828F
:200A980001C007C006C005121168E5828583F0D005D006D00745F06053C290D291758201EA
:200AB800C007C006C00512119FAC82D005D006D0078C03BB61004022EB2485401D8C027B53
:200AD800008A828B83C007C006C005121576AA82AB83D005D006D0078A04EE243FF8ECF264
:200AF800782A7401F28E04EC04FE8092782AE27003020B96D290C291783FE2FCBC3A0280E7
:200B180003020B967840E2FCBC3C738E04EC14243FF9E3FBBB3E677840745BF2EC14243F0E
:200B3800F8745DF27841E2FC7817E2B5042078E5743FF208E4F2087460F278E8EEF275821C
:200B580001C007C0051210CAD005D007801E78E5743FF208E4F2087460F278E8EEF27582D5
:200B780001C007C0051210CAD005D007758201C007C005121269D005D007782AE4F2BF1C28
:200B9800028003020717758201C005120F9C758200120F9C758201120DFF1205BDD00502A9
:0A0BB80007171205E412070B80FB7B
:2015B90020000A0D43555252454E5420434F4E4649473A2020202020202020202020202008
:2015D900202020202020204348414E474520434D443A0A0D00525455204164647220283019
:2015F9002D39293A20002020202020202020202020202020202020205254553D230A0D0037
:20161900495020416464723A20002020202020202020202020202049503D2323232E2323D0
:20163900232E2323232E2323230A0D005375626E6574204D61736B3A2000202020202020F2
:201659002020205355423D2323232E2323232E2323232E2323230A0D0047617465776179D3
:201679003A20002020202020202020202020202020474154453D2323232E2323232E232365
:20169900232E2323230A0D004D414320416464723A200020202020202020204D41433D4646
:2016B900462046462046462046462046462046460A0D0003000A0D6765745F736D69723AAA
:2016D90020000A0D6765745F7369723A20000A0D6765745F696D725F736F636B6574303A23
:2016F90020000A0D6765745F696D725F736F636B6574313A003F000D000A0D496E76616C03
:0D171900696420436F6D6D616E64000A000D
:200BC200D296C292C295D294C29322D293D292D295D29422E58224FF9295D2923094057518
:200BE20082018003758200C29222AF827E007D08BD000280121D74805FF58271D6EE234577
:100C020082FEEF23FF80E98E8222C2960000D296F6
:0700EE0078B9E4F278BAF2E0
:200C12007589207598D8758DFAE5884440F588E5984402F59875A89022AD82AE83AFF08DAA
:200C3200828E838FF0121599FC60188C820DBD00010EC007C006C005120D56D005D006D033
:200C52000780DC22E582FFC4540FFE24F650088E0574372DFD800474302EFD8D82C007125D
:200C72000D56D0078F0553050F7E00C374099D74808EF063F08095F0500A8F06740F5E2414
:200C920037FE8006740F5F2430FE8E82020D56AE827F0078FB7464F208E4F28E828F83C032
:200CB20007C0061214C3AC82AD83D006D007EC4D601074302CF582C007C006120D56D00699
:200CD200D00778F77464F208E4F28E828F83C007C0061213E378FB740AF208E4F21214C3B3
:200CF200AC82AD83D006D007EC4D601074302CF582C007C006120D56D006D00778F7740A4B
:200D1200F208E4F28E828F831213E3AE8274302EF582020D567F00EF2498F9E3600EEF2462
:200D320077F9EF2498F8E2FEF30F80EBEF2477F9EF2498F8E2F378B9E4F27898F290007736
:200D520075F06022AF8278BAEFF278BAE2F59978BAE270FB22C0E0C0F0C000C0D075D0002E
:200D720030982DC2AFC29878B9E22498F8E599F278B9E22401F278B9E22498F8E4F278B972
:200D9200C3E2F5F0742095F0500478B9E4F2D2AF30990678BAE4F2C299D0D0D000D0F0D090
:020DB200E0322D
:200DB400AF8278BB7401F2EF2F25E078F004F278F174BBF208E4F2087460F278F47401F2CA
:200DD40008E4F290000102135078BB7480F278F174BBF208E4F2087460F278F0E4F278F432
:200DF40004F208E4F2900000021350AF8278BB7410F2EF2F25E078F004F278F174BBF20829
:200E1400E4F2087460F278F47401F208E4F2900001021350AF8278BB7408F2EF2F25E07806
:200E3400F004F278F174BBF208E4F2087460F278F47401F208E4F2900001021350E582254F
:200E54008225E0FF0F78EB74BBF208E4F2087460F278EAEFF278EE7401F208E4F29000003B
:200E7400C0071212D8D00778BBE2FE5306F078BBEEF274024E78BBF278F174BBF208E4F204
:200E9400087460F278F0EFF278F47401F208E4F2900000021350E582258225E0FF0F78EBFD
:200EB40074BBF208E4F2087460F278EAEFF278EE7401F208E4F2900000C0071212D8D00739
:200ED40078BBE2FE5306F078BBEEF274014E78BBF278F174BBF208E4F2087460F278F0EF1A
:200EF400F278F47401F208E4F2900000021350E582258225E078EA04F278EB74BBF208E46B
:200F1400F2087460F278EE7401F208E4F290002C1212D878BBE2F5822278EB74BBF208E47C
:200F3400F2087460F278EAE4F278EE04F208E4F29000171212D878BBE2F58222AF8278BBB6
:200F54007404F2EF2F25E078F004F278F174BBF208E4F2087460F278F47401F208E4F2901B
:200F7400002C02135078EB74BBF208E4F2087460F278EAE4F278EE04F208E4F29000181270
:200F940012D878BBE2F58222AF8278BB74FFF2EF2F25E078F004F278F174BBF208E4F208EB
:200FB4007460F278F47401F208E4F2900002021350E582258225E078EA04F278EB74BBF2C0
:200FD40008E4F2087460F278EE7401F208E4F29000021212D878BBE2F58222E58225822537
:200FF400E078EA04F278EB74BBF208E4F2087460F278EE7401F208E4F29000031212D878C3
:20101400BBE2F58222AF8278BB7402F2EF2F25E078F004F278F174BBF208E4F2087460F203
:2010340078F47401F208E4F2900001021350AF8278DFE278BBF278DEE2FE78BCF2EF2F25C7
:20105400E078F004F278F174BBF208E4F2087460F278F47402F208E4F2900004021350AFAE
:201074008278E1E278BBF278E0E2FE78BCF2EF2F25E078F004F278F174BBF208E4F20874B7
:2010940060F278F47402F208E4F2900010021350E582258225E078F004F278E279F1E2F329
:2010B40008E209F308E209F378F47404F208E4F290000C021350E582258225E0FF04FE780F
:2010D400EB74BBF208E4F2087460F278EAEEF278EE7402F208E4F2900024C007C0061212F1
:2010F400D8D006D00778BBE2FC7D0078BCE27A004205EA420478F074022FF278E879F4E214
:20111400F309E4F378E579F1E2F308E209F308E209F38D828C83C006C005C004121350D0CE
:2011340004D005D00678E8E27F002DFBEF3CFD78BBF278BCEBF278F174BBF208E4F20874C1
:2011540060F278F0EEF278F47402F208E4F2900024021350E582258225E078EA04F278EB48
:2011740074BBF208E4F2087460F278EE7402F208E4F29000261212D878BBE2FE7F0078BC6A
:20119400E27C004FF582EC4EF58322AF8278E9E4F2EF2F25E0FF04FE78EB74BBF208E4F255
:2011B400087460F278EAEEF278EE7402F208E4F2900028C007C0061212D8D006D00778BB3E
:2011D400E2FC7D0078BCE27A004205EA420478EA74032FF278EB74E9F208E4F2087460F241
:2011F40078EE7401F208E4F28D828C83C006C005C0041212D8D004D005D0060DBD00010C71
:201214008C0778BBEFF278BCEDF278F174BBF208E4F2087460F278F0EEF278F47402F208A6
:20123400E4F2900028C006121350D00678BB7440F278F174BBF208E4F2087460F278F0EE96
:20125400F278F47401F208E4F290000112135078E9E2F58222AF8278BB7420F2EF2F25E0E8
:2012740078F004F278F174BBF208E4F2087460F278F47401F208E4F290000102135078EBBC
:2012940074BBF208E4F2087460F278EAE4F278EE04F208E4F29000391212D878BBE2F582AA
:2012B4002278EB74BBF208E4F2087460F278EAE4F278EE04F208E4F290002E1212D878BB69
:2012D400E2F58222AE82AF838F0578EAE2C40354F8FFC007C006C005120BC2D0058D82120C
:2012F4000BECD0068E82120BECD0078F82120BEC78EBE2FD08E2FE08E2FF78EEE2F50808A3
:20131400E2F509AA08AC09150874FFB508021509EA4C6025758200C007C006C005120BECF8
:20133400AC82D005D006D0078D828E838FF0EC1213C8A3AD82AE8380CA020BCDAE82AF83E8
:201354008F0578F0E2C40354F8FF430704C007C006C005120BC2D0058D82120BECD0068EB9
:2013740082120BECD0078F82120BEC78F1E2FD08E2FE08E2FF78F4E2F50A08E2F50BAA0AD9
:20139400AC0B150A74FFB50A02150BEA4C60228D828E838FF0121599FCA3AD82AE838C82EB
:1413B400C007C006C005120BECD005D006D00780CD020BCD21
:06005800E478FFF6D8FD7C
:200036007900E94400601B7A00901726780175A000E493F2A308B8000205A0D9F4DAF27533
:02005600A0FF09
:1B13C80020F71130F6138883A88220F509F6A8837583002280FEF280F5F02224
:2013E300AE82E583FF33E433FD6009C3E49EFBE49FFC80048E038F0478F8E230E71078F754
:20140300E2D3F43400FE08E2F43400FF800778F7E2FE08E2FF78F9EEF208EFF28B828C83C8
:1D142300C005121440AE82AF83D005ED600AC3E49EF582E49FF583228E828F8322D6
:20144000AE82AF837D007C0078FAE2235401FB703578F9E225E0F208E233F278F9C3E2F561
:20146000F0EE95F008E2F5F0EF95F0501478F9E2F5F008E2C313C5F01318F2C5F008F28069
:20148000050C8C0580C278F9C3E2F5F0EE95F008E2F5F0EF95F0400E78F9D3E29EF4B3FE00
:2014A000B308E29FF4FF78F9E2F5F008E2C313C5F01318F2C5F008F28D041DEC70C88E82A2
:0314C0008F8322F5
:2014C300AE82E583FF33E433FD6009C3E49EFBE49FFC80048E038F0478FCE233E433FF605C
:2014E3001078FBE2D3F43400FA08E2F43400FE800778FBE2FA08E2FE78FDEAF208EEF28BFD
:20150300828C83C007C005121528AC82AE83D005D007EF6D600AC3E49CF582E49EF58322B5
:051523008C828E832282
:20005E0078FEE84400600A790175A000E4F309D8FC7800E84400600C7900900001E4F0A3A2
:04007E00D8FCD9FAD7
:20152800AE82AF837C007D007B10EF235401FAEE2EFEEF33FFEC2CFCED33FDEA600343045C
:201548000178FDC3E2F5F0EC95F008E2F5F0ED95F0401178FDD3E29CF4B3FCB308E29DF4E9
:0E156800FD430601EB14FB70C18E828F8322BF
:20157600AE82AF838E05BD6100400FED2485400A74E02EFC74FF3FFD80048E048F058C822E
:031596008D832220
:0D0029007581101215B5E5826003020026F6
:1C15990020F71430F6148883A88220F507E6A88375830022E280F7E49322E02261
:0415B5007582002219
:00000001FF
